:020000040800F2
:10000000C00E0020C5000008CD000008CF00000889
:1000100000000000000000000000000000000000E0
:10002000000000000000000000000000D1000008F7
:100030000000000000000000D3000008C54B0008CD
:10004000D7000008D7000008D7000008D700000834
:10005000D7000008D7000008D7000008D700000824
:1000600000000000CD040008D7000008E1040008EB
:10007000D7000008054D0008D70000084D4D0008C6
:10008000794D00080000000000000000D7000008C3
:1000900000000000D7000008D7000008D7000008C3
:1000A00000000000D700000800000000E15D00082B
:1000B0000348854600F0A6F900480047296100087A
:1000C000C00E00200448804704480047FEE7FEE7D2
:1000D000FEE7FEE7FEE7FEE76D4C0008B100000812
:1000E00030B50B46014600202022012409E00D46D0
:1000F000D5409D4205D31D469540491B2546954058
:1001000040191546521E002DF1DC30BD70B500249B
:100110002546002801DA01244042002901DA0125A0
:100120004942FFF7DDFFAC4200D04042002C00D036
:10013000494270BDD2B201E00270401C491EFBD2A0
:1001400070470022F6E710B513460A4604461946E2
:10015000FFF7F0FF204610BDF8B502464A40D40F25
:1001600042004B0052085B089A4202D202460846FF
:1001700011464A0023D0C30D4A00DDB2120EAD1A5B
:10018000202D35DA49020126490AF6058A19002C84
:1001900000D0524220214F1B1146B9402A4110186D
:1001A000C20D9A4221D0002C17D0012D08DCDA05AF
:1001B000801AD20F8019D207DBB200F0E9F8F8BD3F
:1001C000DA05801A012340001B06C01880185A4225
:1001D0008018CA0F1043490007E04908C2071143BD
:1001E000DA05801A80194008801800F0C9F8F8BDB7
:1001F00061000122511A001BF7E70122D20751408A
:10020000AAE70122D2075040A6E7024670B54A404D
:10021000D30FDB0740002DD04A002AD0010E140E68
:10022000000212020919400A520A8418E501044624
:100230005443000A120A2E045043A4194219200CF8
:10024000C543AA18120C0125AD03521C5219120401
:100250007F39240400D0521C104301D44000491EB1
:10026000C2B20C06C0092018401C4008802A02D0E7
:1002700003E0002070BD40084000002900DA0020A3
:10028000184370BD70B502464A40D50F40004A0081
:10029000ED0740085208002814D0002A12D0C40DDF
:1002A000D30D41020120C0055202490A520AE41A44
:1002B000091812187D34914201D3641C00E04900F2
:1002C000002C01DA002070BD0023914201D3891A6D
:1002D0000343400849000028F7D100290AD0914281
:1002E00002D10121C90705E0914201D2012101E0BB
:1002F0000121C943E005C018401900F041F870BD64
:10030000420005D04200120E52428A4201DB002018
:100310007047C9050818704710B50022962311468A
:1003200000F036F810BDC20F410040020123400A20
:10033000DB05D207090EC0187F2901DA00207047BB
:10034000962903DC9623591AC84001E09639884063
:10035000002AF4D040427047410040020122400A86
:10036000D205090E80187F2901DA002070479629EE
:1003700003DC9622511AC84070479639884070476E
:10038000002904DA401C490001D1400840007047B0
:1003900070B40024050C05D11024000402D10029FA
:1003A00021D01124050E01D100020834050F01D11E
:1003B0000001241D850F01D18000A41C002801DB51
:1003C0004000641C002908D020252E1B0D46F54056
:1003D000A14000D001212943084301061B1B000A4C
:1003E000DB1D02D5002070BC7047DB051818801893
:1003F0000029F8DA401C4900F5D170BC40084000E3
:1004000070470000064C0125064E05E0E36807CC66
:100410002B430C3C98471034B442F7D3FFF74CFE03
:1004200084670008A467000870B58C180578401C24
:100430006B075B0F01D10378401C2A1106D10278AB
:10044000401C03E006780E70401C491C5B1EF9D16D
:100450002B0705D40023521E0DD40B70491CFAE75C
:100460000378401CCB1A921C03E01D780D70491CC8
:100470005B1C521EF9D5A142D8D3002070BD30B408
:100480000AB203460846091414460D4654434D4328
:1004900064191D886D43A54215D2B025ED5C240E6C
:1004A000641B2406E40DE3185B885A43D417640CDC
:1004B000A218D21310465943CA17520C5118C91327
:1004C00080B20904084330BC7047000010B50349EE
:1004D0000720486004F024FD10BD00000000024029
:1004E00004480168C943890402D4012149034160D9
:1004F000704700000000024070B504468089012565
:10050000002805D0401E0004000CA08102D0002568
:10051000284670BD1420217E205EFFF7F7FD01B252
:10052000A06800F08BF80120A073F1E7C07B704752
:1005300083604260016000218173C1737047807BDA
:100540007047C173704710B50446002240681146D9
:1005500005F093FC1421615E606805F0D0FC002179
:10056000206803F0A3FF00221146206803F024FF57
:100570001221E28A615E206803F01EFFE08A218A70
:1005800048437D21C900FFF7ABFD401CA08110BD91
:1005900010B4047F002C15D00022E107C90F1346C8
:1005A000002901D00122C3628C420BDD9400241883
:1005B000521CE36294002418E362047F891C521CDD
:1005C0008C42F3DC01212030817110BC7047818C9A
:1005D000491C81840020704770B50446056A0020DC
:1005E0006862E18A401EFFF77BFD2067608B0A216D
:1005F000FFF776FD742108530120C0432861E968A4
:1006000001200143E960296801432960227F002A13
:1006100013D0002110400B46002801D00121E362D5
:1006200090420ADA8D002D19491CEB628D002D19BC
:10063000801C491CEB629042F4DB70BD10B5084A87
:10064000046A002903DA494289B2511A00E089B2EA
:10065000C08A48431146FFF743FD80B2606210BD77
:10066000FFFF00008030C16D0A7C022A0AD14A696E
:1006700089699162C16DCA69096A9162C16D4A6AEC
:10068000896A9162012101710020704700210028D0
:100690000ED0017842785118002A06D0801C0378C9
:1006A000401C591889B2521EF9D1080A4018C1B22B
:1006B000084670470021418201750246417580322B
:1006C0009175D17511765176FF3091760130C176F2
:1006D000017741777047002804D010B4019C1EC0F8
:1006E00010BC704770470000262210B54243124BE1
:1006F0000021D218118051809180D1809181D181C7
:1007000011825182D183D1820B0C138351838400D7
:1007100093830A481184005902F030FC08480021F4
:10072000005902F02BFC0748005903F03BFE064835
:10073000005902F085FD10BD74090020F806002064
:10074000FC060020F006002008070020F0B583B06A
:1007500000250446403400952278012A3BD001232D
:10076000237002689668760770D44F4F4E68BE4279
:100770006ED0966A0F78BB401E4396620123826B4F
:100780001B079A421FD0012A1DD0022A1BD0032A20
:1007900019D0042A17D0052A15D0062A13D0072A03
:1007A00011D002688B6856697607760FB3420AD07B
:1007B0005369DB08DB005361006842690B7A5B0711
:1007C0005B0F1A4342610868102807D0112805D032
:1007D000122803D05EE0022003B0F0BD334A9368D4
:1007E000102809D011280AD0012000060343936085
:1007F0000868102806D04DE00120C005F6E701206A
:100800008005F3E72B482A490068FFF769FC0A21B5
:100810004843009001903DD0274988423FD80028A6
:1008200012DDC007C00F02D00099491E0091019946
:10083000401C491C88422DDA009A801C521E521E10
:1008400000928842F8DB25E00020F0E71DE0FFE79A
:10085000906A0E78B340984390620868102803D0DD
:10086000112801D0122815D110498A68102806D005
:10087000112807D00120000682438A600AE0012087
:10088000C005F9E701208005F6E7416C20221143FD
:100890004164012500202070284603B0F0BD009877
:1008A000401E0090FCD1F5E7011000000027014038
:1008B00040420F0054070020FFFFFF7FF8B50025DE
:1008C0000446002803D0606C002802D008E0012014
:1008D000F8BD0020A06440210855204600F0A8F88B
:1008E000606C1022104270D12068816849076CD476
:1008F000616C13019943022319436164816889077C
:10090000890F012905D10168C9070FD1C168090400
:100910000CD4C1681826B143A6683143C160206871
:100920000169666889008908314301612068C168EE
:100930003D4E3140C160A069E1698003C9030843AD
:10094000216A4E033043666B012E02D00126360326
:1009500000E000263043E66830432669022E08D0C6
:1009600000263043266B76003043666A012E02D0A3
:100970000BE00426F5E7002928D0616C20263143DE
:100980006164A16C01263143A164A16A0E46FF3E59
:10099000C23E02D0E66A314308432168CE6806436E
:1009A000CE600126A16B3607B14213D0012911D0C8
:1009B00002290FD003290DD004290BD0052909D015
:1009C000062907D0072905D010E028E001210904F5
:1009D0000843DAE721684E69F608F6004E6121689F
:1009E0004E69278F7F077F0F3E434E612168C9689C
:1009F0000E4E3140814207D10020A064606C800817
:100A00008000401C606408E0606C984310436064A0
:100A1000A06C01210843A06401252846F8BD606C44
:100A200010436064F8E700001902FEFFE7FF3F8310
:100A300070B5054600681D4986B0884233D11C4810
:100A4000826941150A438261806903240840059048
:100A5000122000260090694602960194800600F05C
:100A600083F802200090694602960194114800F034
:100A70007BF8124C10486660A66020608020E06021
:100A800040002061800060612020A0610002E061E0
:100A9000204600F023F8002803D07A2108A005F0B2
:100AA0003FFAEC63656206B070BD000000240140AF
:100AB000001002400004004808000240180900200D
:100AC0002E2E2F5372632F73746D33326630787805
:100AD0005F68616C5F6D73702E630000002801D148
:100AE0000120704770B504460220214620310D4692
:100AF0004870226811681248A3680140606826693E
:100B00001843E3683343184363691843A3691843E0
:100B1000E3691843084310600A492068401814210B
:100B2000FFF7DEFA800020640748E0630020A0623F
:100B3000E06220636063A06301216970287070BD6A
:100B40000FC0FFFFF8FFFDBF0000024031B500F00D
:100B5000B7F8009C0546601C00D0641C00F0B0F89B
:100B6000401BA042FAD338BD0B680022002B7DD079
:100B7000F8B401270B6897403B4078D04C68022CB2
:100B800001D0122C0ED1D408A4002418A446246A43
:100B90005507ED0E0F26AE40B4430E69AE40264316
:100BA00064462662056856000324B440A446A54363
:100BB0000C79A407A40FB4402C4304604C68012CAA
:100BC00005D0022C03D0112C01D0122C0FD1856836
:100BD0006446A5432C46CD68B540254385604568ED
:100BE0000C79BD43E406E40F94402C434460C46890
:100BF0006546AC438D68B5402543C5604C68E4004C
:100C000045D5274CA56901263543A561A4699508FA
:100C100034400094234CAD002F19BC6895072E0F6B
:100C20000F25B540AC430925ED06A84201D10025AA
:100C30000AE01D4DA84201D1012505E01B4DA84247
:100C400001D1022500E00525B5402543BD60184CC3
:100C500025684E689D43F60300D51D4325606568F1
:100C60004E689D43B60300D51D4301E016E00EE03B
:100C70006560A5684E689D43F60200D51D43A560DA
:100C8000E5684E689D43B60200D51D43E5600B68DC
:100C9000521CD34000D06CE7F8BC7047704700008E
:100CA0000010024000000140000400480008004815
:100CB00000040140002A01D08161704781627047C1
:100CC0000148006870470000500700200248016892
:100CD000491C0160704700005007002010B506480D
:100CE0000168102211430160032000F007F800F0B2
:100CF00017F8002010BD00000020024010B5044687
:100D000000F0BCF97D21C900FFF7EAF900F094FD7D
:100D100000222146501E00F02FF8002010BD0000D8
:100D200008B50F4881690122114381618169114031
:100D30000091C26901040A43C261C06900220840EF
:100D400000901146501F00F017F800221146901E27
:100D500000F012F803210022081F00F00DF808BD72
:100D600000100240C106C90E0120884001490860F8
:100D70007047000000E100E08207D30EFF229A4096
:100D80008907090E994000280BDA0007000F083880
:100D9000830808489B001818C36993430B43C36139
:100DA0007047830804489B001B1818689043084349
:100DB0001860704700ED00E000E400E0F8B504467C
:100DC0000068C0035BD539480027C069C00008D45B
:100DD0003648C26901040A43C261C069084001275C
:100DE0000090334D2868C00511D42868A915084320
:100DF0002860FFF765FF06462868C00507D4FFF79F
:100E00005FFF801B642826D82868C005F7D52748CF
:100E1000006A03210902084023D062680A40824226
:100E20001FD0224E306A326A8843012109040A43E6
:100E30003262326A8A4332623062C00711D0FFF7F1
:100E40003FFF316A054689070BD41A4EFFF738FF7A
:100E5000401BB04201D90320F8BD1448006A800746
:100E6000F4D51248016A03221202914362681143C9
:100E70000162002F03D0C26901048A43C261207855
:100E8000C00706D00948016BA26889088900114390
:100E900001632078800606D50448016B1022914337
:100EA000E268114301630020F8BD00000010024019
:100EB0000070004088130000F0B50546614889B015
:100EC00000680F46C007C00FB8420AD25D480168EB
:100ED00049084900394301600068C007C00FB842A3
:100EE00071D12878800706D557484168F022914390
:100EF000AA68114341602878C00754D06868012867
:100F000021D051490228096822D089075BD54E4C6F
:100F100061688908890001436160FFF7D1FE0646D8
:100F200069684A48012916D06268022925D012074B
:100F3000920F38D00446FFF7C3FE801BA0422DD984
:100F4000032009B0F0BD4049096889033BD5DEE7BD
:100F5000890138D5DBE762681207920F012A22D097
:100F60000446FFF7ADFE801BA042E9D83648406832
:100F70000007800F0128F4D115E01207920F022A12
:100F800011D00446FFF79CFE801BA042D8D82E4803
:100F900040680007800F0228F4D104E02A48406826
:100FA0000007800FC7D127480168C907C90FB94298
:100FB0000CD9016849084900394301600068C0073D
:100FC000C00FB84202D0012009B0F0BD2878400718
:100FD00007D51D484168072212029143EA68114370
:100FE00041601B4A6C460FCA0FC41A4B164D0FCBFB
:100FF0000FC46A680C20114601401748042913D019
:10100000082911D19102090F6B465C5CE96A04ABB7
:101010000907090F595CD20303D5FFF761F8604354
:1010200002E00E492046484369680D4A0906090F47
:10103000515CC8400B4908600320FFF75FFE0020A9
:1010400009B0F0BD002002400010024088130000EB
:10105000F81000080811000800127A0000093D008D
:101060005065000854070020034801680122D2049B
:101070001143016070470000001002400148006801
:10108000704700005407002004480549006849687B
:10109000044A4905490F515CC84070475407002075
:1010A000001002406065000810B513A00FC888B09A
:1010B0006C460FC414A30FCB0FC417494A680C2009
:1010C000134603401548042B0FD0082B0DD1930273
:1010D0001C0F6B461C5DC96A04AB0907090F595CFC
:1010E000D20304D5FEF7FCFF604308B010BD0C48E6
:1010F00008B0604310BD000002030405060708099C
:101100000A0B0C0D0E0F1010010203040506070850
:10111000090A0B0C0D0E0F100010024000127A008D
:1011200000093D00F8B504460078E24DC0074BD0F9
:1011300068680007800F012807D068680007800FE3
:10114000022809D16868C00306D5286880033BD50A
:10115000606800287ED037E0012062680004012A20
:101160001CD08100002A01D0052A1BD02A688243A6
:101170002A602868884328606068002816D0FFF736
:101180009FFD0646286880031ED4FFF799FD801B4B
:10119000642878D828688003F7D515E029680143CA
:1011A0002960E9E72A680A432A60F7E7FFF788FD24
:1011B00006462868800307D5FFF782FD801B642858
:1011C00061D828688003F7D42078800740D5686804
:1011D0000007800F07D068680007800F022809D138
:1011E0006868C00306D42868800718D5E06801281D
:1011F00030D114E0E0680028286818D001210843A5
:101200002860FFF75DFD06462868800707D4FFF7D2
:1012100057FD801B022836D828688007F7D5286834
:10122000F82188432169C9000843286010E040087C
:1012300040002860FFF744FD06462868800707D570
:10124000FFF73EFD801B02281DD828688007F7D4D1
:10125000207800E02BE1000728D5E069002813D0B2
:10126000696A012001436962FFF72AFD0646686A40
:1012700080071BD4FFF724FD801B022803D8686A6F
:101280008007F7D512E08DE0686A40084000686288
:10129000FFF716FD0646686A800707D5FFF710FDC1
:1012A000801B02287ED8686A8007F7D42078400720
:1012B00068D500200090E869C00008D4E8690121E1
:1012C00009070843E861E8690840012000907A4F67
:1012D0003868C00511D43868B91508433860FFF77D
:1012E000EFFC06463868C00507D4FFF7E9FC801B11
:1012F000642857D83868C005F7D5A06801281ED0E3
:10130000002801D005281ED0286A40084000286225
:10131000296A042081432962A068684E00281BD0F6
:10132000FFF7CEFC0746286A800723D4FFF7C8FCE6
:10133000C01BB04260D8286A8007F7D51AE0296A36
:1013400001200143E7E7286A042108432862286A4C
:10135000012108432862DFE7FFF7B2FC0746286A4D
:10136000800707D5FFF7ACFCC01BB04244D8286A01
:101370008007F7D40098002804D0E969012000070D
:101380008143E9612078C0061CD56069012835D009
:10139000401D51D0686B042108436863686B4008A6
:1013A000400000E028E06863FFF78AFC0646686BAF
:1013B000800707D5FFF784FC801B02281CD8686BC8
:1013C0008007F7D4206A00286FD069680907890F61
:1013D00002296CD0012636060228286831D0B04395
:1013E0002860FFF76DFC0446286880015DD5FFF793
:1013F00067FC001B022855D90320F8BD696B042047
:1014000001436963686B012108436863FFF758FC77
:101410000646686B800707D4FFF752FC801B022842
:10142000EAD8686B8007F7D5686BF8218843A16913
:10143000C90008436863C5E7696B04208143696399
:10144000F2E7B0432860FFF73BFC074628688001BD
:1014500007D5FFF735FCC01B0228CDD828688001CE
:10146000F7D4E86AE16A000900010843E862A16A6A
:10147000606A014368683D22120490430143696039
:10148000286830432860FFF71BFC04462868800169
:101490000BD4FFF715FC001B0228ADD8286880018B
:1014A000F7D502E028688001A1D40020F8BD012012
:1014B000F8BD0000001002400070004088130000DA
:1014C000002801D101207047F8B5002605460446E2
:1014D00040358662687F002803D12E77204600F0D1
:1014E0004BF802236B77206801684022914301602A
:1014F0000721E0680902884201D9002201E00122A7
:1015000012030F273F02B84202D0884200D0A662E1
:10151000276B002F05D1884201D9236301E0012008
:101520002063A1686068636908432169194308431F
:101530000123A1695B0219400843E1690843216A5C
:101540000843A16A084321680860616B606AA36967
:1015500008431B0C0427E1683B40194308432168FA
:10156000104348602068C1697A029143C1612666D0
:10157000012068770020F8BD00B500680D4987B0EC
:10158000884215D10C48826981140A4382618069BE
:1015900008400590E02000900220019000210320E7
:1015A00003900291049109206946C006FFF7DCFA16
:1015B00007B000BD0030014000100240FFB50446F6
:1015C00083B00020254640350090287F01270C9EDF
:1015D00001280FD001202877FFF772FB0190687F68
:1015E000616801280ED0CA1FFD3A08D1A168002900
:1015F00005D102E0022007B0F0BD042802D002208D
:10160000009003E1049800287ED0059800287BD044
:101610000698002878D0687F042801D005206877D4
:1016200000202066059921640699E9800699A98021
:101630000499A1630699E1870699A187E064206572
:101640000721E0680902884202D8E888012805D904
:101650002068426801231B039A4304E02068426823
:1016600001231B031A43426020680268520603D418
:10167000026840231A430260E0688842606846D9E5
:10168000002802D0E08F012837D104982168008813
:10169000C8600498801C0490E08F401EE0872CE016
:1016A000002F10D0E08F00280DD0206881688907B6
:1016B00009D504990988C1600498801C0490E08FC2
:1016C000401EE0870027E88800280DD02068816848
:1016D000C90709D0C168059801800598801C05904C
:1016E000E888401EE8800127701C06D0FFF7E8FA62
:1016F00001460198081AB04272D2E08F0028CFD17B
:10170000E8880028CCD173E07EE000907EE00028DD
:1017100002D0E08F012865D1E08F0128049808D914
:1017200021680088C8600498801C0490E08F801EA7
:1017300007E02168007808730498401C0490E08F4B
:10174000401EE0874EE0002F1BD0E08F002818D00D
:1017500020688168890714D5E18F0129049907D988
:101760000988C1600498801C0490E08F801E06E008
:10177000097801730498401C0490E08F401EE087B4
:101780000027E888002823D020688168C9071FD077
:10179000E988012912D9C068059908800598801C3C
:1017A0000590E888801EE880E88801280FD8206826
:1017B0004168012212031143416008E0017B059852
:1017C00001700598401C0590E888401EE8800127BC
:1017D000701C07D0FFF774FA0199401AB04201D388
:1017E000032092E7E08F0028ADD1E8880028AAD135
:1017F00031462046019A02F0F4FC002801D0202056
:101800002066206E002801D001207EE70120687745
:1018100000202877009807B0F0BD0000042204499A
:101820000428086902D09043086170471043FBE721
:1018300000E000E0704700000B4910B4401E8842F1
:1018400002D910BC012070470849486108480722A6
:10185000C3691B021B0A4C042343C3610020886137
:101860000A6110BC70470000FFFFFF0000E000E0CD
:1018700004ED00E010B5FFF7DDFF10BD70477047C5
:10188000034620331A7F012A01D10220704730B469
:1018900001241C7702225A770325CA682D02AA4325
:1018A0008D6800682A43A502AA434D682A43E502D1
:1018B000AA430D682A432503AA430D692A436503F9
:1018C000AA434D6989692A43A503AA430A43E5034C
:1018D000AA430A4342645C770020187730BC704703
:1018E00002462032137F012B01D10220704770B4D1
:1018F0000123137702245477046865687026B54382
:101900006560046865680E68354365600468A568AD
:101910008026B543A5600068846849680C438460EC
:1019200053770020107770BC7047002801D1012048
:10193000704770B5054604462035687F002803D1FE
:101940002877204600F00AF802206877211D2068D9
:1019500003F028FA01206877002070BD08B5006800
:101960000121890788420FD10848C169012211432A
:10197000C161C06910400022009011460F20FFF79E
:10198000FBF90F20FFF7EEF908BD00000010024040
:101990000268D36801210B43D360006802680A43E0
:1019A000026000207047F0B5054620352A7F012AE5
:1019B00019D001222A7702226A7703689A6877246D
:1019C000A243FF242402A2439A600E6870220723D8
:1019D000502E42D00EDC202E7DD006DC002E7BD097
:1019E000102E57D19EE00220F0BD302E75D0402E33
:1019F00050D173E0602E4ED0702E1CD00122120305
:101A0000B31A13D0934245D10268CF688E684B68F1
:101A10009168A1433C021C4334430C43946000682A
:101A20008168012292031143816092E0006881681D
:101A3000C908C900F8E70268CF688E684B689168EA
:101A4000A1433C021C4334430C43946002689068F9
:101A500077218843084390607BE004684E68CF6834
:101A6000216AB646BC46266A760876002662A669D2
:101A7000F027BE4367463F0137430A26B143764607
:101A80003143A761216204685021A0689043084354
:101A90001843A0605DE04E680468B646CE68216ACF
:101AA0001027B9432162A169276A3603BC460F2774
:101AB0003F03B9430E436746A0218F437146090196
:101AC0003943A661216201686024886890432043FD
:101AD000184388603DE02DE01EE033E004684E6866
:101AE000CF68216AB646BC46266A7608760026622A
:101AF000A669F027BE4367463F0137430A26B14334
:101B000076463143A761216201684024886890438A
:101B10002043184388601CE001688868904318439C
:101B2000886016E0016810248868904320431843B9
:101B300088600EE0016820248868904320431843A1
:101B4000886006E004683021A06890430843184389
:101B5000A0600120687700202877F0BD704770B53D
:101B60000446006801690025C9438907002915DB7F
:101B7000C168C943890711D4E91E0161012020779A
:101B8000206880698007204602D0FFF7E7FF04E065
:101B900000F0BCF8204600F0B3F925772068016911
:101BA000C943490717D4C168C943490713D404215D
:101BB000C943016102202077206880698005800F79
:101BC000204602D0FFF7CAFF04E000F09FF820464D
:101BD00000F096F9257720680169C943090716D4F2
:101BE000C168C943090712D40821C943016104200F
:101BF00020772068C0698007204602D0FFF7AEFF3B
:101C000004E000F083F8204600F07AF92577206898
:101C10000169C943C90617D4C168C943C90613D4A9
:101C20001021C9430161082020772068C069800520
:101C3000800F204602D0FFF791FF04E000F066F825
:101C4000204600F05DF9257720680169C943C9077E
:101C500008D1C168C943C90704D1891E0161204662
:101C600000F04FF920680169C943090609D4C16829
:101C7000C943090605D48021C94301612046FFF705
:101C8000FDFD20680169C943490609D4C168C943FB
:101C9000490605D44021C9430161204600F032F9CC
:101CA00020680169C943890609D4C168C943890606
:101CB00005D42021C94301612046FFF7E0FD70BD36
:101CC00030B500680F4985B0884218D10720022539
:101CD00040030324009001950295694604950394FE
:101CE0000948FEF741FF07200002009009200195F6
:101CF0000295694604950394C006FEF735FF05B0CA
:101D000030BD0000002C0140000400487047000076
:101D1000F8B5064604462036307F0D4601280CD023
:101D20000120307702207077002A08D0042A19D0C9
:101D3000082A2CD00C2A6ED16EE00220F8BD206853
:101D400003F074F8206881690822114381612068DA
:101D50008169042291438161206881692A69114364
:101D6000816194E0206803F09FF820688169012276
:101D7000D2021143816120688169521091438161CF
:101D8000206881692A691202114381617FE020681D
:101D9000016AFF22013291430162076A4268C16908
:101DA0007023994389082B6889000B43012149025C
:101DB0008F43A96809023943374FB84208D1C71485
:101DC000B943EF683F020F4301158F43394605E0E1
:101DD000324FB84202D0324FB84208D103273F03F6
:101DE000BA436F693F011743AA6912013A4342603F
:101DF000C3616A68C26301622068C1690822114335
:101E0000C1612068C16904229143C1612068C16930
:101E10002A691143C1613AE02068026A012109037D
:101E20008A430262026A4168C76973231B029F43A7
:101E30002B681B023B4301277F03BA43AF683F0374
:101E40001743154A904205D0144A904202D0144AD2
:101E5000904205D10122920391436A699201114394
:101E60004160C3616968016407622068C169012239
:101E7000D2021143C1612068C269012189028A43EB
:101E8000C2612068C1692A6912021143C16101203F
:101E9000707700203077F8BD002C014000440140ED
:101EA00000480140002801D10120704770B5054667
:101EB00004462035687F002803D12877204600F0AB
:101EC0000BF802206877211D206802F06BFF0120CB
:101ED0006877002070BD00000068074981B0884223
:101EE00007D106488269C1140A43826180690840AB
:101EF000009001B070470000002C0140001002402B
:101F0000704770477047002801D10120704770B5B5
:101F1000054604466035687A002803D128722046B9
:101F200000F026F8242068722068016849084900FA
:101F30000160204603F05EF9012818D0606A00288D
:101F400002D0204603F0BCF8206841680922D20282
:101F500091434160206881682A2291438160206812
:101F60000168012211430160204603F00FF970BDA2
:101F700000B500680E4987B0884216D10D488269C5
:101F8000012189030A4382618069084005900C2081
:101F90000090022001900020029003900120049004
:101FA00009206946C006FEF7DFFD07B000BD00004E
:101FB000003801400010024010B50446406802F0AD
:101FC0004CFAA1680882000C488210BD10B5006868
:101FD000012102F0A9FA10BD002839D010B504463D
:101FE000007E012833D1217B0020012904D0022961
:101FF00010D0032929D11EE0A168203108710121E8
:10200000606802F053FA0E21E28A615E606802F0B5
:10201000D3F90CE0A168203108710021606802F05A
:1020200045FA1021E28A615E606802F0C5F9002875
:102030000BD002200AE0A168012020310871A068BD
:10204000618A0182A18A4182F3E70320207610BDD4
:10205000704701230373C181C282037643767047C0
:10206000022303730182C28201210176002141769D
:10207000704710B5006802F027FA10BD10B540682F
:1020800002F002FA02F069F810BD407E70478368E2
:1020900019880846598880B2090408437047836844
:1020A00099880846D98880B2090408437047836834
:1020B00099890846D98980B2090408437047836822
:1020C000198A0846598A80B2090408437047027B7E
:1020D0000021012A01D10E21415E0846704710B54A
:1020E000406802F0C3F910BD10B5006802F015FA9F
:1020F00010BD81681E20085E70478368598B0846B2
:10210000998B80B20904084370478368D98A0846CE
:10211000198B80B2090408437047836042600160F4
:1021200000210173C1810182C182017670470322BF
:1021300002734182091481820121017600214176D6
:1021400070478268518280688182704710B504466A
:102150000068032102F0E8F9002801D0012121766E
:1021600010BD10B50068072102F0DEF910BD10B5F2
:10217000406802F0A1F910BD01B2120C12048BB23A
:102180001A430D4B001459435843091808180B49BA
:102190004042C013CB43884203DC1946884200DB2F
:1021A00001B290B20A041043994203D1044980B2AB
:1021B0000904084370470000E6490000FF7F000063
:1021C0000180FFFFF0B50546084600F053F829B23C
:1021D0002A140B4606B20714154671437D43481B6B
:1021E0001449C5138D4201DD084603E012488542BB
:1021F00000DB28B2250C2D0484B225430E4CA042EE
:1022000003D12D0C0D482D0405437B4372439818D0
:10221000C013884204DCA04201DA214600E001B28A
:10222000A8B20A041043A14203D1054980B20904AF
:102230000843F0BDFF7F00000080FFFF0180000029
:102240000180FFFF70B50546084600F013F802460E
:1022500029B203B228140E46121405465E435543B4
:10226000751951435843401AED13C113A8B209041C
:10227000084370BD0122D203821812040323920D79
:102280001B021A40012330B4DB03C11889040C0E71
:102290006300FF252C1B1E496400002A1FD0FF3A53
:1022A000521E29D0FF3A521E0ED0FF3A012A09D100
:1022B0000A5BC95A80B2120410434942000C000460
:1022C00089B2084330BC7047CA5A80B21204095B15
:1022D0001043000C000489B230BC08437047CA5A4E
:1022E000095B524280B2120410434942000C0004C0
:1022F00089B230BC084370470A5B80B25242120474
:10230000C95A1043000C000489B230BC084370471E
:1023100068650008FFB581B017460E460A9D0C9A05
:102320000B990446866180308262C1620A4800903F
:102330000A4B0B4A21463046FEF7CDF9E761049877
:1023400065622062A069A8478021B0200155216AFA
:10235000A069884705B0F0BD652300087D2300080B
:102360007929000810B50446616A80698847802190
:10237000B0200155216AA069884710BDFFB5054608
:102380009BB01C982E4640090027803614460090CA
:10239000002812D0421E0021284603F0BEFB002870
:1023A0001AD01C98C006C00E1C90F06A002804D0F9
:1023B000009A0021521E03F0B0FB1C980D2876D223
:1023C00001007944097949188F44B60AA7B571719B
:1023D000B4B3B2B1B0AFAE000B2069460871C1E230
:1023E000207800900520694608710098462851D051
:1023F0002BDC0E2879D00CDC55D201007944097908
:1024000049188F44555050625072727272727272D3
:102410007272162869D00BDC0F38072843D20100EE
:102420007944097949188F446069693E3E606000CB
:102430001C2851D004DC172857D0182833D154E079
:102440001D2849D041282ED14FE061284DD012DC03
:102450004738152827D201007944097949188F4453
:102460004D4D22222222222244222222444444444C
:10247000444444224D00772840D00CDC742824D0FA
:1024800004DC642831D065280DD12EE0752835D0C4
:10249000762808D132E0782830D079282ED07D28CF
:1024A0002CD07E282AD002206946087115E056E219
:1024B0006478F06A2246009903F02FFB22462846F2
:1024C000009903F02AFB074607E001466278284698
:1024D00003F023FB074600E00127002F2CD0002348
:1024E0001A46F021EC69A86941E2A17860780902F6
:1024F00042182846009903F010FBEBE7A1786078BA
:1025000009024018E1782279090412068918421854
:102510002846009903F001FBDCE7217803206A4696
:102520001071832908D208E0EFE1D8E1C9E1A8E100
:102530007DE169E13EE135E18EE188007844406863
:10254000874400000C020000440200000C0200005E
:102550000C020000440200002802000028020000D3
:1025600028020000280200002802000028020000C3
:1025700028020000280200002802000028020000B3
:1025800028020000280200002802000028020000A3
:102590002802000028020000280200002802000093
:1025A0002802000028020000280200002802000083
:1025B0002802000020040000200400004402000063
:1025C0002802000028020000280200000C0200007F
:1025D000200400002004000020040000200400006B
:1025E000200400002004000020040000200400005B
:1025F000200400002004000020040000200400004B
:10260000200400002004000020040000200400003A
:10261000200400002004000020040000200400002A
:10262000200400002004000020040000200400001A
:10263000200400002004000020040000200400000A
:1026400020040000200400002802000020040000F4
:1026500020040000200400002004000044020000C8
:10266000440200004402000028020000280200008A
:1026700028020000280200000C02000044020000B2
:1026800028020000280200002802000028020000A2
:102690002802000028020000280200002802000092
:1026A0002802000028020000280200000C0200009E
:1026B000440200002004000028020000280200005C
:1026C0002802000028020000280200002004000068
:1026D0002004000028020000280200000C02000074
:1026E0000C0200004402000044020000440200000A
:1026F00044020000440200000C0200002802000016
:10270000280200004402000020040000280200000B
:10271000280200000C0200004402000044020000F5
:102720004402000044020000440200004402000091
:102730004402000044020000440200004402000081
:10274000440200000C020000200400000C02000003
:10275000284602F063FF0090401C7DD00123EC6905
:102760006A46F021A869A0471FB0F0BD284602F0D4
:1027700055FF0090401C6FD00223EC696A46F0219F
:10278000A869A0471FB0F0BD284602F047FF00909F
:10279000401C61D00423EC696A46F021A869A04777
:1027A0001FB0F0BD217807206A461071284602F05C
:1027B000E7FE8FE6002002900390049005900690BB
:1027C0000790089002AA099005E01318401CC0B2B7
:1027D000D9701D2803D2B16A095C0929F5D1B26A02
:1027E000411D535C69460B72C11D525C69464A72B9
:1027F000B16A0930085C694688722023EC6902AA34
:10280000F021A869A0476AE6617920790902401899
:1028100082B26178207809024018A178E37809042F
:102820001B06C9184118284602F0E4FE52E60FA81C
:10283000009021780EAB10AA284603F015F96946DE
:102840003820085E0621484308A9087202124A721D
:1028500002148A72000E00E084E0C8726946888F14
:1028600008A908730012487310A9088808A988737A
:10287000000AC8730823EC690AAAF021A869A047D6
:1028800070E0217AE0790902401887B2A178607877
:1028900009024018E17822790904120689184018C3
:1028A00026780621FDF732FC03B2A179607909028E
:1028B000401800B200903A463146284603F042FAEA
:1028C00008E6617820780902401801B2E278A07821
:1028D0001202801802B2284603F014F9FFE50C94A6
:1028E00008A91E9808750C206946087121490CA892
:1028F00002F092FE002835D01E48EC690379026888
:10290000F021A869A0471FB0F0BD002012A904E083
:102910000A54401CC0B2202803D2B26A125C002ABA
:10292000F6D12022121A002A12DD0818401ED10703
:1029300002D000214170401C51100906090E07D039
:10294000002242708270801C491E0906090EF8D1CF
:102950002023EC6912AAF021A869A047BFE5012055
:10296000694608710123EC6901AAFF21A869A04703
:102970001FB0F0BD1400002010B50446616A8069E4
:1029800088478021B0200155216AA069884710BD81
:1029900010B502480068FFF771FB10BD0C00002065
:1029A000F8B5A04CA078012879D1A088002802D0E1
:1029B000A088401E28E100216846018069469A48A7
:1029C00001F06AFE68460021415EA16369469748AE
:1029D00003F018FB9648006800F01AFB954801F0D8
:1029E0009CFD132841D201007944097949188F448C
:1029F0000957991794C1D9E9FEFC3C3C3C626F7BB6
:102A0000303D49008C48FDF791FD00282DD0002174
:102A10008948FDF796FD0321864801F085FDF2E027
:102A20008548FDF78CFD00280AD08448006801F035
:102A3000EFFA1420E08010217E4801F075FDE2E0FD
:102A400001217D48FDF77DFD01217A4801F06CFDF3
:102A5000D9E0E088002808D178480021006800F01B
:102A60000DFB1121734801F05FFDCCE0734801219B
:102A7000006800F003FB00284ED012216D4801F0E1
:102A800053FDC0E06948FDF783FD674801F0CEFFC4
:102A90000421684801F048FD002836D1B3E0C0E0C9
:102AA0006648006801F0B4FA1420E0800D21614806
:102AB00001F03AFDA7E0E08800282DD15F48002111
:102AC000006800F0DBFA0E215A4801F02DFD9AE073
:102AD0005A480121006800F0D1FA00281CD00F21CB
:102AE000544801F021FD8EE05548012101715548FF
:102AF0005549006801F0DEFC4F48FDF724FD022136
:102B00004C4801F011FD00287DD00020FDF7ECFDC0
:102B10004A48006801F094F975E00521454801F044
:102B200003FD70E04448FDF7E7FC002813D043485C
:102B3000006801F041F9434D0121286801F0B6FC1D
:102B40003A49286801F0B6FC03F0D8FA0721394861
:102B500001F0EAFC57E000253A482E462E43006873
:102B600001F0F3FBB1B2000401433848090C0582BF
:102B7000418248E0354D2420405D002805D1314890
:102B8000006801F0E2FBE88328820621294801F071
:102B9000CBFC2C48006801F058FC2D480068FFF77A
:102BA0001BFA30E02A480068FFF716FA274D242068
:102BB000405D002827D12348006801F0C6FBE88368
:102BC000288220E01D48006801F0F6F80020FDF79B
:102BD0008BFD1748006800F03EF919204001208164
:102BE0000821144801F0A0FC0DE008E0FFE720896F
:102BF000002808D109210F4801F096FC03E00021CC
:102C00000C4801F091FC0120A080E088002802D04F
:102C1000E088401EE0802089002802D02089401EE4
:102C20002081F8BDE0060020F802002014040020F6
:102C30000C070020380700208C0400200807002023
:102C400094090020F0060020C8020020740900202A
:102C5000EC060020F3B5524E81B000245249B47006
:102C600050480860524851490160084600F094FD00
:102C7000504801F054FC504800F076F94F484E4956
:102C80000160504D4E4828604F48FDF7A5FC4E4B63
:102C90004E4A4F482968FDF74BFC281D01684A4AF7
:102CA000286801F0F3FB4B4801F016FF474803F09A
:102CB000D0F8494800F058F9484800F055F948481C
:102CC000454901604748454901604748306203F083
:102CD00021F9474945480860FF300130316A454FC6
:102CE000C760016132480168434800F022F9434857
:102CF0004149016043494248086001F003FA00205D
:102D0000FDF7F2FC404901200871286801F0A5FB9D
:102D10003882000C7882286801F09FFB0014B8828A
:102D20003B4F3A483860334B22492A68FFF7F5F9A0
:102D3000286801F0A1FB3B68014600221846FFF716
:102D400088F9019839680160281D016831480160DF
:102D500023490968416023490968C46081601449B6
:102D6000096844610161184981611A490462C161BD
:102D7000296841620F49816234390968C162316A48
:102D80004463846301631A49096804644464846485
:102D9000C464C163029908600120B07003B0F0BD43
:102DA000E0060020F004002010070020E8010020C9
:102DB000080700203807002030010020F40600201A
:102DC000B4010020F006002014040020C8020020F6
:102DD0008C040020F80200205C0100208801002003
:102DE000F8060020FC060020D00400201C00002073
:102DF0000C07002074090020A8040020040700200C
:102E0000DC04002014070020940900209C09002005
:102E1000EC060020B809002030B4C21DF932148835
:102E200000236400015314885480641CA4B21480ED
:102E3000802C01D30024148080240025455F801C51
:102E4000EB18641EF9D1D817400EC018C01190803D
:102E500030BC0846704710B5FF2104460131FDF72C
:102E600070F90020FF3401342080608010BDFF2104
:102E70000531085E7047000008B5FEF7FFF87D21B8
:102E80000901FDF72DF9FEF7D7FC07490748FFF7C1
:102E9000E1FE03F0E7FA0648034B00901A1F0121F8
:102EA000044802F069FF08BD100000200C0000205B
:102EB000046500080800002010B5044600780028CA
:102EC00003D00020208180B210BDA17A606A00F09A
:102ED000F6F80D490246884208D0A08A0146431EF2
:102EE000608858438018FDF7FBF860806088E18AAD
:102EF000884201D9082005E0218B884201D20020B8
:102F000000E020892081DEE7FFFF00000178002932
:102F100002D0C08800B270474188C2698A1A1A215B
:102F2000415E008C5143CA17120C5118091408183D
:102F3000F0E703780022002B03D0028181884180D2
:102F4000704741624280704701462220085E704708
:102F500001460620085E7047408B704701460420FA
:102F6000085E7047008B7047018881804188C1806E
:102F7000018C4184002181608162704781607047CB
:102F800041847047C180704781807047F0B404224B
:102F9000825E062314251624C35E0026455F045F67
:102FA0004A43002B09D087684B43F91808D5002FF6
:102FB0000BDD002B09DD144907E0002181600DE0E5
:102FC000002F02DA002B00DA1049C3688B4202DBC3
:102FD00003698B4201DD836000E081608168877F47
:102FE0000B463B41077F3A419A18AA4202DDAE1ACE
:102FF0002A4603E0A24201DAA61A22468919816014
:10300000F0BC10B270470000FFFFFF7F010000809E
:1030100070B5C51DF935EA68044693891846D38909
:1030200080B21B041843D38A128B99B21204114345
:1030300002B20BB2001409145A4348431018C117C6
:10304000090C08180614286902F0FCFEA968484318
:103050004B21C900FDF75AF8014630464843062186
:1030600048430A21FDF752F8C117090C081801144A
:103070002046FFF7D1FE70BD816B084770B505464D
:10308000002640350446002902D0012907D014E06B
:1030900081688847688D6883002808D00DE0688BB8
:1030A000002809D0401E0004000C688305D1216966
:1030B00020468847012600E00126304670BD426B5D
:1030C000104742681047F0B4024640320BB2158DEB
:1030D000091469439489490063434942CC18E60FB7
:1030E0003419CB1ADE0FF31864105B10AD08002CF6
:1030F0003FDA002B13DA0421D181E11ACE17B60B87
:10310000711889146D18D917C90BC91849144B19AE
:10311000E117C90B091949146C1AC16A68E0002942
:1031200013DC0324D481CC1AE617B60B3419A4148B
:103130002D19DC17E40BE318CC17E40B5B146118B2
:103140005B1949145C1A816A52E00223D381631A25
:10315000DE17B60BF3189B14ED18E317DB0B1B19E6
:103160005B14EC1ACB17DB0B591849140B19416A85
:103170003EE0002B13DB0121D181E11ACE17B60B03
:10318000711889146D18D917C90BC91849144B192E
:10319000E117C90B091949146C1A016A28E00029C2
:1031A00013DC0523D381631ADE17B60BF3189B14C7
:1031B000ED18E317DB0B1B195B14EC1ACB17DB0BB9
:1031C000591849140B19016B12E00024D481CC1A50
:1031D000E617B60B3419A4142D19DC17E40BE31809
:1031E000CC17E40B5B1461185B1949145C1AC169B4
:1031F000ADB215829BB25382A4B29482968C012EFA
:103200001CD11E26965F002ED68C01DDAD1900E084
:10321000AD1B15822025555F002D02DDB5B25B196F
:1032200001E0B5B25B1B53822223D35E002B02DD8B
:10323000ABB2E31801E0ABB2E31A9382F0BC0847EB
:1032400081680847F0B48030C66D01247578274640
:10325000AB06AF40B5783B43AE062746AF403E4392
:1032600033435D030F4B6D0B9D62C06D5D6900784C
:10327000ED08ED0005435D61C8680325AD02A84374
:10328000C860C8681043C86004201860D868800807
:1032900080002043D8608868034A1040001D886081
:1032A000F0BC704700240140E8FFFF7FCAB2122A39
:1032B00005D20904090E072901D28A30115470473A
:1032C000F0B5054680352A8910210A432A81002756
:1032D00047678767C767EF71E96D04464A788B785F
:1032E000634EC030C9789A4213D28B4203D207761C
:1032F0000121417612E08A4205D207760221417609
:1033000013E0817618E0012101760221417687766B
:1033100012E08A4204D20121017647760221F0E7C9
:103320008B4204D20221017647760121E9E702218E
:1033300001760121417687764E48316A81433162B8
:103340004D4860604D48E06120626062A062E062CA
:103350002063204600F074FDE86D02238079401C54
:10336000400801014118DB433361EA790020102A4B
:1033700012D23269D24392070BD43361401C80B21F
:10338000884206D3E879102806D201205621085336
:1033900002E0EA79102AECD3002158221155A979CC
:1033A0003348012912D0416C021591434164E96D03
:1033B0000A7C022A0AD14A6989699162E96DCA695F
:1033C000096A9162E96D4A6A896A9162416C0122D7
:1033D000D203914341642B48294F00783A58022187
:1033E0008A433A5028488268284B1A40103282603B
:1033F000C26852085200C2607960042202602889C3
:1034000088432881606F00096067A06F0009A0678A
:10341000E06F0009E0671E4860601E48E0611E48DA
:1034200020621E4860621E48A0621E48E0621E487C
:103430002063B1691D480140B161F1690140F1614A
:10344000288870632888B0632888F063B1691848B9
:103450000143B161F1690143F1610648316A0143F9
:1034600031620020A8712889102188432881F0BD8D
:10347000002C014055050000DD360008ED3800083D
:10348000000002406867000800240140E8FFFF7F59
:103490005D35000889390008593A0008293B0008C1
:1034A000F93B0008713C0008E93C0008F7F7000010
:1034B0000808000070B4264A122945D20546C035D6
:1034C0002C7C0023002C0DD9C618A036B67F8E4266
:1034D00004D15A0012188032928B0BE05B1CDBB2D5
:1034E0009C42F1D8112C05D20346BE33E1542B7C0B
:1034F0005C1C2C748824245AE50625D4A40723D404
:10350000144AD46864086400D460D4680325AD020A
:10351000AC43D46001248C40946241188031897A94
:103520004907490F51610421116091680A4C2140FB
:10353000091D91601168C9434907FBD4116C8AB217
:10354000590008188030828370BC10467047000014
:10355000FFFF000000240140E8FFFF7FF0B40123DB
:103560005A4CDB4302462361044640340546A67BA1
:1035700080355B0CC030062E6FD237007F443F7918
:10358000FF19BF441F454502021FED6D6E78AD78EF
:10359000AE4202D2458A878A01E0858A478A566F01
:1035A000761B4B4DAE4201DA0D8004E09E4201DDF8
:1035B0000B8000E00E80966FF61BAE424ADB9E4207
:1035C00044DC49E0ED6DAE78ED78AE4202D2458A3A
:1035D000878A01E0858A478A966F761B3C4DAE420A
:1035E00001DA4D8004E09E4201DD4B8000E04E8018
:1035F000D66FF61B0227CF5FBE1976429E4201DDD1
:103600000B802AE0AE4201DA0D8026E00E8024E035
:10361000ED6D6E78ED78AE4202D2458A878A01E080
:10362000858A478A566F761B294DAE4201DA0D8096
:1036300004E09E4201DD0B8000E00E80D66FF61B99
:103640000027CF5FBE1976429E4201DD4B8004E029
:10365000AE4201DA4D8000E04E80037C002B2AD080
:10366000C37B1046BE301D5C1A4883681A4E334037
:10367000103383608368DB435B07FBD50123AB40DA
:103680008362531980339B7A5B075B0F4361C36886
:103690000325AD02AB43C36004230360C3685B082A
:1036A0005B00C360836833401B1D836080321089D8
:1036B0002023184310810888E083488820840888E4
:1036C0004988401840426084F0BC7047002C01409B
:1036D0000180FFFF00240140E8FFFF7F30B42B4949
:1036E0000122D2430A6101468031CA790346C033C0
:1036F000102A1AD21A7E446F52001218C032528A0F
:10370000A21842675A7E846F52001218C032528A41
:10371000A21882679A7EC46F52001218C032528A71
:10372000A218C267CA79521CCA711A7C002A2BD00F
:10373000174A04241460D4680325AD02AC43D46056
:10374000D46864086400D460DC7B0346BE33E45C68
:103750009368104D2B40103393609368DB435B07F5
:10376000FBD5002393620123A340936200198030AC
:10377000807A4007400F506190682840001D90609B
:10378000088920221043088130BC7047002C01407A
:1037900000240140E8FFFF7FF0B440494B68042259
:1037A00093434B600A604B68082293434B600A6066
:1037B0003B4A13680124E40423431360394B1A681D
:1037C000012422431A60FF251A6A12352A431A621D
:1037D00002468032D56D2D7C012D03D1324E1D6AFB
:1037E00035431D628025ED431D61DE6880273E4321
:1037F000DE605E69012426435E611488641E5C629B
:10380000002604464034A684A68DE6841D61274B1D
:103810003E01DD683543DD608B681725AB43ED075E
:103820002B438B608B68DB43FCD58B68DB435B07EA
:10383000F8D58B68DB43DB06F4D58B68DB439B074D
:10384000F0D58B681A4D2B405B1C8B600B68DB43FB
:10385000DB07FBD1174903460E78174DD23373515E
:103860000D78174E154BAB510E78164D0323775933
:103870003F0C3F041F4377510B78291FCD5801217E
:103880000D431149CD50002151711171C0300174A7
:10389000C173A184A08DE084F0BC70470024014076
:1038A00000100240002C0140440400000058014078
:1038B000E8FFFF7F686700080C00024040240140D9
:1038C0000800024004000240000002408030002155
:1038D00043790A46012B01D1022142710379012B60
:1038E00002D140231943027108467047F8B5844657
:1038F000803002882149521E0A6421498A68214B7E
:103900001A4010328A608A68D2435207FBD5C46DD0
:10391000012265781646AB06AE40A5783343AF0664
:103920001646AE403743E4781646A506A6403B430C
:1039300035432B435B035B0B8B62C06D4B69007897
:10394000DB08DB0003434B61C86803239B029843F9
:10395000C860C86893021843C86004200860C8683B
:10396000800880001043C8608868064A1040001D27
:103970008860604600F072FBF8BD0000002C01403A
:1039800000240140E8FFFF7FF8B504462F4800906F
:10399000204680302146038840310D8A9C465B1BBF
:1039A0009EB2C36D01221F899202BE4209D9032330
:1039B000CB8100882649401E85B22046FFF742FC95
:1039C0003EE0498A7600691A89B28E4202D259894C
:1039D000691A09E0E9198DB2AC4506D861460122A1
:1039E0004900D202491B491E8DB29E780127B106BB
:1039F000B740DB7839439F0601269E403743394361
:103A00004B0313495B0B8B62C06D4B690078DB087D
:103A1000DB0003434B61C86803239B029843C860E3
:103A2000C8681043C86004200860C8680122800884
:103A300080001043C8608868064A1040001D8860F6
:103A400000980564204600F009FBF8BD002C0140F9
:103A500000240140E8FFFF7FF8B504462F4800909E
:103A6000204680302146038840314D8A9C465B1BAE
:103A70009EB2C36D01221F899202BE4209D903235F
:103A8000CB8100882649401E85B22046FFF7DAFB2D
:103A90003EE0098A7600691A89B28E4202D25989BB
:103AA000691A09E0E9198DB2AC4506D861460122D0
:103AB0004900D202491B491E8DB25E780127B1062A
:103AC000B740DB7839439F0601269E403743394390
:103AD0004B0313495B0B8B62C06D4B690078DB08AD
:103AE000DB0003434B61C86803239B029843C86013
:103AF000C8681043C86004200860C86801228008B4
:103B000080001043C8608868064A1040001D886025
:103B100000980564204600F0A1FAF8BD002C014091
:103B200000240140E8FFFF7FF8B504462F480090CD
:103B3000204680302146038840314D8A9C465B1BDD
:103B40009EB2C36D01221F899202BE4209D903238E
:103B5000CB8100882649401E85B22046FFF772FBC4
:103B60003EE0898A7600691A89B28E4202D259896A
:103B7000691A09E0E9198DB2AC4506D861460122FF
:103B80004900D202491B491E8DB25E780127B10659
:103B9000B740DB7839439F0601269E4037433943BF
:103BA0004B0313495B0B8B62C06D4B690078DB08DC
:103BB000DB0003434B61C86803239B029843C86042
:103BC000C8681043C86004200860C86801228008E3
:103BD00080001043C8608868064A1040001D886055
:103BE00000980564204600F039FAF8BD002C014029
:103BF00000240140E8FFFF7FF8B504461A48009012
:103C00002146803120464030CF6D0D88838ABC46E6
:103C10000122EE1A3F899202B6B2BE4205D90323B1
:103C2000C3810888401E86B213E0408A7100181ACA
:103C300080B2814203D260464089181A08E0D81940
:103C400086B2B54205D801226800D202801B401E10
:103C500086B206492046FFF7F5FA0098066420462A
:103C600000F0FCF9F8BD0000002C014000240140E8
:103C7000F8B504461A48009021468031204640306D
:103C8000CF6D0D88838ABC460122EE1A3F899202CD
:103C9000B6B2BE4205D90323C3810888401E86B24E
:103CA00013E0008A7100181A80B2814203D2604684
:103CB0004089181A08E0D81986B2B54205D8012201
:103CC0006800D202801B401E86B206492046FFF7DC
:103CD000B9FA00980664204600F0C0F9F8BD00006B
:103CE000002C014000240140F8B504462F48009004
:103CF000204680302146038840310D8A9C465B1B5C
:103D00009EB2C36D01221F899202BE4209D90323CC
:103D1000CB8100882649401E85B22046FFF792FAE3
:103D20003EE0898A7600691A89B28E4202D25989A8
:103D3000691A09E0E9198DB2AC4506D8614601223D
:103D40004900D202491B491E8DB29E780127B10657
:103D5000B740DB7839439F0601269E4037433943FD
:103D60004B0313495B0B8B62C06D4B690078DB081A
:103D7000DB0003434B61C86803239B029843C86080
:103D8000C8681043C86004200860C8680122800821
:103D900080001043C8608868064A1040001D886093
:103DA00000980564204600F059F9F8BD002C014048
:103DB00000240140E8FFFF7F30B400235822135451
:103DC000803082791949012A12D04A6C0B159A4326
:103DD0004A64C26D137C022B0AD1536992699A62BC
:103DE000C36DDA691B6A9362C36D5A6A9B6A9362F8
:103DF0004A6C0123DB039A434A640E490C4A097852
:103E0000545802239C4354500B498C680B4D2C4052
:103E100010348C60CC6864086400CC605360042269
:103E20000A6001899943018130BC7047002C014030
:103E3000000002406867000800240140E8FFFF7F9F
:103E4000F0B4002358226C4913549B1E0B610A697D
:103E5000D243D207FBD10B618030028852084A63FB
:103E6000028852088A6302885208CA630288521F75
:103E70000A640A69D243D207FBD14A6C01239B0230
:103E80001A434A644A6C5B011A434A64C26D137C4C
:103E9000022B19D1096A594B194251690AD0936909
:103EA0008B61C26DD169126A8A61C26D516A926A70
:103EB0008A6109E092698A62C26DD169126A8A6276
:103EC000C16D4A6A896A9162017A4D4BCA06012125
:103ED000002A44DAC46D0E4665780F46AA06AE4045
:103EE000A5783243AE06AF403E43E4783243A506A0
:103EF0000E46A64035432A435403424A640B94625B
:103F0000C46D55692478ED08ED00254355613E4C9C
:103F1000DD7F66598E4366510326DD7F271DEF59ED
:103F20003F0C3F043743261DAF51DD7F66590E43DA
:103F3000665104241460D468A408A4000C43D4601F
:103F4000D1680324A402A143D160D1681415214390
:103F5000D16091682D4C2140091D91603EE0C56DF6
:103F60000E466C78A206A640AC783243A5060E46F3
:103F7000A64035432A435403224A640B9462C46D1D
:103F800055692478ED08ED00254355611E4CDD7F11
:103F900066597608760066510226DD7F271DEF59A7
:103FA0003F0C3F043743261DAF51DD7F66590E435A
:103FB000665104241460D468A408A4000C43D4609F
:103FC000D468032189028C43D460D168141521433D
:103FD000D16091680D4C2140091D91600A4904226D
:103FE0004A60DB7FCC5802221443CC500189114334
:103FF0000181F0BC70470000002C01405505000015
:10400000496700080024014000000240E8FFFF7FEC
:104010000123582210491354DA1E0A6100224A6310
:104020008A63CA630A69D243D207FBD14A6C01236F
:10403000DB031A434A648030C16D0A7C022A0AD12C
:104040004A6989699161C16DCA69096A9161C06DE6
:10405000416A806A88617047002C0140F0B40146D3
:10406000224B40310A8A5A634A8A9A638A8ADA63FF
:104070001A6C97B21E4A94791E4AA2181E4C1568F3
:10408000A6790824B440A54315601C4D1D6415682D
:10409000254315601F641A69D243D20705D0002357
:1040A000CA8A0024012A02D003E00123F8E7012391
:1040B000CC8202468032117A890614D510490D68E7
:1040C0000146C031CE7B7600301880308583108960
:1040D0002025A8431081C87B401CC0B2C8730A7C4D
:1040E000904200D3CC73F0BC18467047002C0140BE
:1040F0006D670008182C014074670008FFFF00007E
:10410000402401400021416041808160C160012163
:10411000016170474030007A70470C225143081803
:10412000808970470C22514309180E20085E7047A1
:104130000C22514309181020085E70470C23594384
:104140000818828170470C2359430818C2817047B0
:104150000C23594308180282704701460420085E68
:10416000704701460020085E704710B50421415E8B
:10417000CA03521A0C21415E1046FBF7C7FF00B27A
:1041800010BD70B40023CE5E0125047C827A002E1F
:1041900002DA714289B200E0098886898E4200D233
:1041A0000123C6898E4200D901230821415E0029DE
:1041B00002DA494289B200E00189468A8E4201D37F
:1041C000002B04D0A24205D2521CD2B202E0A2427D
:1041D00000D20022A24200D100258272284670BC83
:1041E0007047F8B50F460B4615460092032104466A
:1041F0000022C90200F01BF82026002812D13B46FD
:10420000002280212046009500F05CF8002809D1AA
:1042100003213B46002249022046009500F007F8A2
:10422000002803D0206E304320660320F8BDF8B587
:10423000044600681D4680680E46304240D0032781
:104240007F02BE4204D12068017B6846017000787D
:10425000681C31D0002D05D0FCF732FD0699401ABC
:10426000A84229D320684168E022914341606068F8
:10427000C11FFD390CD10121A068C903884202D0B9
:104280004911884204D120680168402291430160AD
:104290000121A06A4903884207D1206802688A4345
:1042A0000260206802680A4302600120403460779F
:1042B000002020770320F8BD206880683042C0D1FC
:1042C0000020F8BD70B504460068049E80681D4655
:1042D000C043000637D4681C30D0002D04D0FCF752
:1042E000EFFC801BA84229D320684168E02291435B
:1042F00041606068C11FFD390CD10121A068C9036C
:10430000884202D04911884204D1206801684022C5
:10431000914301600120A16A4003814207D12168D5
:104320000A6882430A6021680A6802430A60012021
:104330004034607700202077032070BD20688068BB
:10434000C0430006C7D5002070BD70B50178054692
:10435000002907D06C68E868012805D9AA691419F2
:10436000401E06E0AC68F6E7012803D16888040423
:104370000020E860012905D0E017000C00190014A6
:10438000AC6070BDE017000C001906146869FFF7F7
:10439000E4FE301A01B22869FEF7F8FD01046C60F2
:1043A000A96070BD0178012905D110B5006900210F
:1043B000FEF7E4FD10BD7047F8B50D460178012603
:1043C0000446002909D060680714E08BA84216DB78
:1043D0002420205EA84212DC13E0A068C3171B0C47
:1043E00018180714E08CA84205DA2820205E002661
:1043F000A84204DC25E02820205EA84208DD002633
:104400001FE0208CA84203DD2220205EA842F6DBBC
:10441000002A0FD06580A08B7D215043C900FBF797
:104420005FFE401CE91B0A040146E0601046FBF7F2
:104430006DFE05E02804012905D0A0600020E060A1
:10444000A0613046F8BD6060F8E710B504464069E9
:10445000FFF783FE0004606010BDC28D1146028E1E
:1044600088B2110408437047C08B70474068C11779
:10447000090C08180014704701462C20085E70478C
:1044800001462420085E704740697047426101611F
:104490002A21095C0170818D09044160C18D0904E4
:1044A000816000214180C1608161704701700021FD
:1044B000C16070474161704702780021012A01D133
:1044C000C160012108467047027800210B2A04D1FF
:1044D000092101700021818001210846704710B434
:1044E000448803780C439443448082880A43828042
:1044F0000A2B07D0002C02D00A2101700B4610BCF9
:1045000018467047002CFAD10B2101700B46F6E7D4
:104510008188408800040843704700787047002174
:10452000017041808180704710B4024613780020EA
:10453000132B62D21C007C4424792419A7440C1349
:10454000292C464B505356595D5D091A1F24373CA0
:104550004100002967D050E0032964D0012962D0CE
:104560000C2960D04DE007295DD00D295BD00E29C4
:1045700059D042E00E2956D0072954D03DE00F29EA
:1045800051D007294FD038E002294CD007294AD012
:1045900033E0072947D030E0072944D0102942D022
:1045A000042940D011293ED001293CD025E0112911
:1045B00039D0072937D020E0122934D0072932D04A
:1045C0001BE004292FD007292DD016E005292AD079
:1045D000072928D011E0062925D0072923D00CE08F
:1045E000072920D009E008291DD006E009291AD0A2
:1045F00003E0002917D00C2915D0032911D0012977
:104600000FD007290DD0548880210C435480948802
:104610000C43948051880A2B07D0002901D00A212D
:10462000117010BC70470120FAE70029F9D10B2165
:10463000F6E770B52C3014460D460646FEF78EFCA4
:1046400028803046FEF784FC208070BD70B4EC24D6
:10465000245CC21DF9326400EC2124186C260D5C28
:10466000A65FD17993791468591A341900290FD0AB
:104670006918994200DBC91A490009186C23CB5EFE
:10468000E31A147E19462141C180136070BC704743
:104690000421515E631AF4E7F3B50446E11D8FB0BF
:1046A000F93107918979002002912246491E6A3228
:1046B00006900490054603900A900E920B910029F3
:1046C00019DD1146029AD3070122D207D34202D044
:1046D0000220085E891C02260B9A8E5F002352106E
:1046E00008D004278019CF5F06268E5FDB19091DCD
:1046F000521EF6D1C0180299491E04D44900091966
:104700006C228A5E10180299FBF700FD06460B9892
:10471000002820DD02990E98CA070121C907CA4264
:1047200005D00221415E891B49434D19801C02239B
:104730000B99C35E002249100CD004279B1BC75F56
:104740005B435D190623BF1BC35E7F43BA18001D80
:10475000491EF2D1AD180298401E06D4400000193F
:104760006C21415E881B4043451928460299FBF79E
:10477000CDFC014630467043C217520E1018079AFE
:10478000C01112895043814201DA01200A90A08AA7
:104790000A2170434843C117090C08180014E17A34
:1047A000FBF7B4FC109925460880A080E0350A9EEE
:1047B0006E73297F01290CD001200490287C0028E9
:1047C00040D00498404206400020002E40D0E873BC
:1047D00038E0002800DA40420799498A814228DD02
:1047E0002146403128228A5E0B462A21595E5243D7
:1047F0004943891806910C21C203615E101AFBF728
:1048000085FC01460798407C4843C217920E101859
:1048100080114843C117890E039008188111079829
:10482000007C41430398401A0699814201DD012032
:104830000490049868742046803006994167039973
:104840008167BBE720461099FFF79BFC11B0F0BDD4
:10485000E97B491CC9B2E973079AD27B9142F1D333
:10486000E873207CA072002011B0F0BDF0B52423C5
:10487000C35E0446056ED803C21A93B0954201DDAB
:10488000226604E0D803181A854200DC2066256EF3
:10489000E01DF93002951290C68A354128B2656E46
:1048A000954205DCDA039A1A954201DD626E00E05A
:1048B0006266059222253241655FA76DEB035B1BA3
:1048C00012B29F4201DDA36504E0EE03AE1BB742C6
:1048D00000DCA665E66D9E4203DCEB03EB1A9E420C
:1048E00000DCE365A36D0193129DE76D2E7D8D883D
:1048F00033411BB29E465B1B06971DB237413FB248
:10490000CB88BC46FB1A1EB20B8900270B93CF5FE6
:104910007B431B140C930227CF5F0B9B16217B4319
:104920001F140E97615E734611915943019B5B1AE8
:104930001821615E109169435F181E21615E0C9B16
:104940000B9159437B181A21615E0C914143591A0E
:1049500001911C21615E0F91029B69435D18218DBD
:1049600013460B410D912021615E67468E465943E7
:104970000623E35E59436918029111997943069F12
:104980007D1A10990E9F71436D180B9979436D181C
:104990000C995143691A06910F99059D71436E1840
:1049A0000D9905460D41714669431D464D43771BE0
:1049B000002B01DB012101E00021C94323464033E4
:1049C00018855A85484305B24A43504206B2002032
:1049D000205EFDF74FFC011400B27043C013694321
:1049E00002B2C81300B2111A20462C30FEF7CEFADC
:1049F0002146E0310A7B129B521C9D79D2B295422E
:104A000000D1002255002D194035AE8D9E80A8851D
:104A10000A732188081800B220800199A1650299C3
:104A2000216606996766E16513B0F0BDF8B500210F
:104A30008165C1650166416601800246C180E03240
:104A40009173D17311745174603A5167C71DF9376E
:104A500091673960B976F976BC79002C15D00023BE
:104A6000E207D20F02D06C2319520123A2420CDAC2
:104A70005D002D184035A9855B1C5D002D18403563
:104A8000921C5B1CA985A242F2DBEC221154B98076
:104A900000212C30FEF772FAF8BD4030028D11462D
:104AA000428D88B21104084370478030806F704790
:104AB000FF2315331B5C816D19410A46C16D90B20D
:104AC00019410904084370478030406F7047038BD9
:104AD0000B80808B10807047F8B50446C61DF936F0
:104AE0002746B07BE037B8730120387705460020B1
:104AF00020852421615E2A480091FBF707FB00B264
:104B0000002808D0C10F0818218D4010491C6D00E5
:104B100021850028F6D129B2E18400984843214933
:104B2000FBF7F4FA20840025A565E5652566656632
:104B30002580E580BD73FD733D7421467D74803111
:104B40004D678D673560B576F576B446B679204603
:104B50002146002E15D00023F207D20F02D06C237D
:104B60005D520123B2420CDA5F007F184037BD85E9
:104B70005B1C5F007F184037921C5B1CBD85B242F6
:104B8000F2DBE0310D7361468D8000212C30FEF7A1
:104B9000F5F920462C30FEF7E7F92581F8BD000035
:104BA0005EEA0F00BE28000001838283704770B563
:104BB0002C3014460546FEF7E7F921462846FEF755
:104BC000E1F970BD10B5084C2078022805D1FCF73A
:104BD0007DF8FCF74FFE00202070C0B2401C207012
:104BE00000F072F810BD00003E07002070B594B0D0
:104BF00001251220059500901020049006900520B4
:104C00000024C004039502260A90089609940B9488
:104C10006846FCF787FA002800D0FEE707200C90D2
:104C20000E9401210D960F940CA8FCF745F900286D
:104C300000D0FEE710A810951294FCF7BFF80028EA
:104C400000D0FEE7FCF710FAFCF718FA7D21C90046
:104C5000FBF746FAFCF7F0FD0420FCF7DFFD03212B
:104C60000022081FFCF788F814B070BD13480168D3
:104C70000122114301604168114A114041600168FD
:104C8000104A1140016001680122920491430160C1
:104C900041683F22120491434160C16A0909090138
:104CA000C162016BFF22143291430163416B4908D9
:104CB00049004163002181607047000000100240FC
:104CC0000CB8FF08FFFFF6FE0C480078012814D14D
:104CD00010B5FDF765FE00F0B1F900F0F1FE0848EF
:104CE0004188002902D04188491E4180018800295D
:104CF00002D00188491E018010BD7047E2060020E5
:104D0000580700200F49C86DC0680269D243D20716
:104D100005D1C268D243D20701D1921E0261C86D8B
:104D2000C0680169C94309060BD4C168C9430906B3
:104D300007D410B58021C94301610348FBF792FCF9
:104D400010BD704768020020E801002010B5084C33
:104D50000022C0212046FBF7ADFF01F0F1F801224F
:104D6000C0212046FBF7A6FF0248FCF7F8FE10BD65
:104D700000040048680800200948006AC168C94367
:104D8000C9070BD10169C943C90707D110B5012172
:104D9000C94301610248FBF71AFC10BD70470000CF
:104DA00014040020F0B402681B4B0124A4071B4D1F
:104DB000984203D0A04201D0A84203D17026B2434A
:104DC0004E683243164E174F98420AD0A04208D080
:104DD000A84206D0144CA04203D0B04201D0B84241
:104DE00004D103242402A243CC6822438024A2439A
:104DF0004C69224302608A68C2620A6882629842F1
:104E000003D0B04201D0B84201D109690163012148
:104E10004161F0BC70470000002C014000040040DC
:104E2000004401400048014000200040F0B4026A04
:104E3000520852000262056A436882697024A243E4
:104E400092080C6892001443022295438A68144E1B
:104E50002A43124DA84204D0B04202D0114FB842AA
:104E600006D10827BA43CF681743042297433A462E
:104E7000A84204D0B04202D00A4DA84206D1032570
:104E80002D02AB434D691D438B692B434360846105
:104E9000496841630262F0BC70470000002C014089
:104EA000004401400048014070B4026A10239A4354
:104EB0000262046A4368826973252D02AA430D6861
:104EC0002D021543202294438A6812012243114C7B
:104ED000A04208D11446CA688026B4431201224376
:104EE0004024A24305E00C4CA04202D00B4CA0424F
:104EF00008D10324A402A3434C69A4001C438B697A
:104F00009B0023434360856149688163026270BCF2
:104F100070470000002C014000440140004801405F
:104F2000F0B53D488BB0428B6946871C0A80808B68
:104F300048803A4801F0D6F8394D2864394800686D
:104F4000FFF7A2FAFFF70DF90490374809A90068A6
:104F5000FEF7B7F80998FDF70FF906900499FDF7E9
:104F600031F906462C4C1020205E31B2411A2F48F0
:104F70000068FEF70BF805901220205E3114411AEC
:104F80002B480068FEF702F80599000489B2014336
:104F9000B982080CF88227480068FBF770FA049978
:104FA000FDF750F9204905900A6801461046FEF7C2
:104FB0008AF86946888C2080C88C6080069AA28016
:104FC000069A300C130CE380A681E08105983883A3
:104FD0000598000C7883049820848A8090B2CB8056
:104FE00000042865C88800046865286A00F02FFF5F
:104FF00069460881E8631048FFF738FC0E48FFF760
:1050000025FB0D480021415E6964816DA964C06D76
:10501000E86400200BB0F0BD7409002014040020E7
:10502000E0060020F006002008070020F806002017
:10503000FC06002010070020F8020020F8B51B4DE8
:10504000A878012831D11A4800270068FDF734FFFD
:10505000184E04463068FEF70FF801462143C84356
:10506000154C82B22046FFF73AFA2046FFF755FA70
:105070000A2802D00B280ED10AE03068FEF7E0F8CB
:105080003846FBF731FB0D480068FDF7E4FE02E00F
:105090003068FEF7D5F86878012806D1297830689D
:1050A000FEF70DF8688102206870F8BDE006002068
:1050B0000407002008070020380700200C07002004
:1050C00010B4818CC90707D001684A6801235B04CA
:1050D0009A43836A1A434A60818C890707D501681D
:1050E0004A6801231B049A43C36A1A434A60818CAD
:1050F000490707D501684A6801239B049A43036B5B
:105100001A434A60818C090707D501684A68012360
:10511000DB039A43436B1A434A60818CC90607D567
:105120000268916801231B039943836B19439160C3
:10513000818C890607D501688A6801235B039A433D
:10514000C36B1A438A60818C490612D503685A687A
:1051500001210905046C8A4322435A60026C8A4289
:1051600007D10268516803235B059943436C1943D7
:105170005160818C090607D501684A680123DB0468
:10518000806C9A4302434A6010BC7047F8B5002512
:105190000446C566FBF794FD07461449206888421B
:1051A0001DD10068124E000709D501213B4600229F
:1051B00049052046009600F0CBF800280DD1206864
:1051C000006840070BD501213B4600228905204697
:1051D000009600F0BDF8002801D00320F8BD202083
:1051E00060346072A07225720020F8BD0038014062
:1051F000FFFFFF01F8B504462369A268E6691A4378
:10520000636910213343002026681A43336805463A
:105210004B4F3B401343336023685A6803263603E1
:10522000B243E66832435A60236AA26926681A4389
:10523000B3680B273F02BB431343B360414A126B71
:105240009207920F06D0012A08D0022A08D0032A1A
:1052500007D101E0002104E0022102E0042100E086
:1052600008210122E369D203934235D100290ED0EF
:10527000022916D004291CD0082924D001250109AF
:1052800009010007400F08432168C8602DE0FBF7C3
:10529000FBFE616840004A088018FAF721FF80B2DF
:1052A000EDE76168284A48088018FAF719FF80B2CC
:1052B000E5E7FBF7F9FE616840004A088018FAF755
:1052C0000FFF80B2DBE761680122480812048018F2
:1052D000FAF706FF80B2D2E7002908D0022911D0E0
:1052E000042919D0082922D001252846F8BDFBF74A
:1052F000CBFE61684A088018FAF7F2FE216880B296
:10530000C860F2E76168114A48088018FAF7E8FEB9
:10531000216880B2C860E8E7FBF7C6FE61684A080A
:105320008018FAF7DDFE216880B2C860DDE76168A9
:1053300048088018FAF7D4FE216880B2C860D4E724
:10534000F369FFFF001002400024F40000127A000D
:10535000FFB50446006881B00D460A9EC169174634
:105360002846884321D00020B84228D1701C1ED086
:10537000002E06D0FBF7A4FC01460498081AB042A0
:1053800015D920680168FF22A1329143016020688D
:105390008168490849008160202060346072A072F1
:1053A00000202072032005B0F0BD0120DCE720685A
:1053B000C1692846884305D00020B842D6D00020D5
:1053C00005B0F0BD0120F8E70021FF300130017782
:1053D000704710B5FBF76EF910BD08B508216A4695
:1053E00011700123FF2100F061F808BDF8B5C41D5C
:1053F000F934227F214E0746002A3CD0627F0546C1
:105400008035C9B2002A0BD0012A0FD0AB7E99306B
:105410009B1C9A420ED21154607F401C60772AE098
:105420006976388A7882164E012001E0A97602203A
:10543000607720E0E17600217982216A114E0A68C6
:1054400020239A430A6000212177FBF71FF9E17EB0
:10545000884207D13A46BC68AB7E697E9B32386889
:10546000A04708E00A206946087001236A46FF2128
:10547000384600F01BF83046F8BD00007C67000895
:105480007E67000880670008FF300130017F002937
:1054900001D0012070470021417701210177006A86
:1054A000016820221143016002207047F8B50546CB
:1054B00006468035E87D002801D00120F8BD317511
:1054C000344673751846163401275B1E002815DD17
:1054D000D907F807521E641EC14203D0507860708D
:1054E000521C641C5B1C581008D051786170917874
:1054F000A170401E921CA41C0028F6D13046143026
:10550000FBF7C4F8A87500202876FF36EF75013642
:10551000306A01688022114301600220F8BD30B476
:1055200003468033DA7D0146002A1CD01A7E002A09
:1055300009D0012A09D04C7DA41CA24207D20C46F6
:105540001434125D04E00A7D02E04A7D00E09A7D99
:10555000C81DF930046A22854C7D1A7EA41CA24223
:1055600003D2521C1A7630BC7047006A026880244D
:10557000A24302600020D8750868496830BC08471B
:1055800070B58268007D0124800015580F292ED245
:1055900008007844007900188744291915072A2A39
:1055A000101D21252929292915002846FCF79CFDD5
:1055B00006281DD12846FCF7DAFD19E02846FCF73D
:1055C00093FD002803D02846FCF7CBFD10E02846C9
:1055D000FCF7BCFD0CE02846FCF74BFD08E0284634
:1055E000FCF7F4FC04E02846FCF7E6FC00E00024AD
:1055F000204670BD70B515460A468168007D800062
:105600000C5806211046FAF781FD01B22A462046C1
:10561000FCF71FFD012070BD00207047F0B5034668
:105620001E7DC068B5004259986883B04459002077
:10563000C043252970D018DC3AD20F007F443F794F
:10564000FF19BF44575A5F646A717B86FC8B8D8F4C
:1056500091959EA2A6B93535DDCC353535FBFAF9E5
:105660003535F8F7F635F5F4F300342970D00EDC53
:1056700026390E291CD20E007E443679B619B7445D
:10568000E8FBFFDE73E7E6E5E4E3E2E1E0DF5B2968
:1056900073D01CDC402971D00CDC35296FD0362941
:1056A0006ED03F2904D1506AFEF7DEFE0621484342
:1056B00003B0F0BD412957D042297BD04329F7D10F
:1056C00019694B5900211C0F092C74D0B2E17229C1
:1056D0000DD008DC6E292CD06F2934D07029E7D189
:1056E000E04803B0F0BD732901D08129F9D1002031
:1056F00003B0F0BD304603B0F0BD906AFEF708FF7E
:1057000003B0F0BD906AFEF708FF03B0F0BD20467D
:10571000FCF7BBFC03B0F0BDC2E02046FCF7DFFCA9
:105720000621484303B0F0BD1068FDF717FC03B035
:10573000F0BD1068FDF716FC03B0F0BD1068FDF772
:1057400007FC03B0F0BD1068FDF706FC03B0F0BD28
:105750001FE11068FDF7F8FB03B0F0BD506808E0EA
:1057600050680FE0506811E02046FCF7A8FC5EE1AD
:105770009068FDF7F3FB03B0F0BD67E140E11AE18B
:105780002CE19068FDF7E4FBF5E79068FDF7DCFBA2
:10579000F1E71869415900200B0F092B00D19069DE
:1057A0000901090F092900D1D06900283AD001AABE
:1057B000694611E02AE13CE11869415900200B0FCC
:1057C000092B00D190690901090F092900D1D0697D
:1057D000002827D06A4601A9FFF779F922E0186965
:1057E000415900200B0F092B00D190690901090FC5
:1057F000092900D1D069002814D001AA69460FE018
:105800001869415900200B0F092B00D1906909013B
:10581000090F092900D1D069002803D06A4601A9DF
:10582000FEF707FF69460020085EA4E734E02FE09A
:105830002AE025E020E019E014E00FE00AE037E07C
:1058400094E084E074E05DE046E041E03CE037E075
:1058500032E029E0106B00F0F5FA8CE7D06AFDF732
:1058600055FB88E7D06BFDF702FB84E72046FCF789
:1058700005FC062148437EE72046FCF718FC86E03D
:105880002046FCF714FCD2E05069FEF743FC72E7B7
:105890002046FCF7FCFB7AE02046FCF7F8FBC6E06C
:1058A0002046FCF7FCFB72E02046FCF7F8FBBEE06C
:1058B0002046FCF704FC6AE02046FCF726FC66E084
:1058C0002046FCF722FCB2E02046FCF716FC5EE026
:1058D0002046FCF712FCAAE019694B5900211C0F65
:1058E000022C01D0012C00D191691B011B0F022B4E
:1058F00001D0012B00D1D169002996D00846FEF7CE
:1059000030FC38E719694B5900211C0F022C01D0DB
:10591000012C00D191691B011B0F022B01D0012B1F
:1059200000D1D169002998D00846FEF71EFC22E775
:1059300019694B5900211C0F092C00D191691B01D9
:105940001B0F092B00D1D1690029D7D113E71969A1
:105950004B5900211C0F092C00D191691B011B0F11
:10596000092B00D1D1690029DED104E719694B590F
:1059700000211C0F092C00D191691B011B0F092B61
:1059800000D1D1690029BCD00846FFF791F800B2D8
:10599000F1E619694B5900211C0F092C00D19169BE
:1059A0001B011B0F092B00D1D1690029A9D0084682
:1059B000FFF77EF83BE019694B5900211C0F092CB9
:1059C00000D191691B011B0F092B00D1D16900295E
:1059D00097D00846FFF761F800B2CCE619694B5939
:1059E00000211C0F092C00D191691B011B0F092BF1
:1059F00000D1D169002984D00846FFF74EF816E09F
:105A0000506AFEF73DFD06214843B4E619694B593B
:105A100000211C0F092C00D191691B011B0F092BC0
:105A200000D1D169002991D00846FFF73EF8001453
:105A3000A1E691691B011B0F092B00D1D169002937
:105A400084D00846FFF740F8001494E62046FCF79F
:105A50001CFB012800D060E62046FCF738FB06213D
:105A6000484388E67A84A634FFB5C168007D81B0DA
:105A700080000858012544690A9F1E46002C10D05A
:105A800020460299FEF749FB0399088020460299B7
:105A9000FEF748FB308020460299FEF749FB38802C
:105AA00000E00025284605B0F0BD10B4019C01714E
:105AB000C360002182600175046110BC7047000062
:105AC00009484188002902D04188491E41808188C7
:105AD000012902D98188491E81800188012902D9C2
